:020000040800F2
:1000000000280020E11700087D1300088313000872
:10001000891300088F1300089513000800000000E2
:100020000000000000000000000000009B1300081A
:10003000A713000800000000B3130008BF13000856
:10004000291800082918000829180008291800088C
:10005000291800082918000829180008291800087C
:10006000291800082918000829180008291800086C
:10007000291800082918000829180008291800085C
:10008000291800082918000829180008291800084C
:10009000291800082918000829180008291800083C
:1000A000291800082918000829180008291800082C
:1000B000CD130008291800080000000029180008C6
:1000C000291800080000000000000000291800089E
:1000D000000000002918000829180008000000008E
:1000E0002918000829180008291800080000000035
:1000F0000000000000000000000000000000000000
:0C01000000000000000000005FF808F1A3
:10010C0010B5054C237833B9044B13B10448AFF345
:10011C0000800123237010BD8C0000200000000023
:10012C00582E000808B5034B1BB103490348AFF325
:10013C00008008BD0000000090000020582E000830
:10014C0080B582B000AF78607B68DA797B681A7210
:10015C007B689A797B68DA717B681A687B689B8804
:10016C001946104601F046FE03461A467B689A7102
:10017C007B689A797B68DB799A4231D17B68DA7932
:10018C007B681B7A9A422BD17B689A797B685A726E
:10019C007B685A7A7B689B7A9A420ED07B685A7A33
:1001AC007B689A727B685B7A002B19D17B68012281
:1001BC001A747B68C822DA6012E07B68DB685A1E0E
:1001CC007B68DA607B68DB68002B09D17B68C8220E
:1001DC00DA607B689B7A002B02D17B6801225A740F
:1001EC0000BF0837BD4680BD80B483B000AF7860D7
:1001FC007B681B7C012B01D1012300E000231846F6
:10020C000C37BD4680BC704780B483B000AF7860BB
:10021C007B6800221A7400BF0C37BD4680BC704747
:10022C0080B483B000AF78607B685B7C012B04D119
:10023C007B6800225A74012300E0002318460C3717
:10024C00BD4680BC704780B483B000AF78607B68DB
:10025C0000225A7400BF0C37BD4680BC70470000AA
:10026C0080B500AF9B4B1B78052B00F2A98101A236
:10027C0052F823F099020008090500082F04000821
:10028C0069030008B7020008CD050008924B1B68F3
:10029C001946002000F0B4FF4FF47A71022000F0F0
:1002AC00AFFF8C4B04221A7093E101F099F80220F5
:1002BC0000F0F2FF0346002B1AD04FF47A710220A3
:1002CC0000F09EFF854B1B68013B844A1360844BF6
:1002DC001B68013B824A1360804B1B681A46804B9B
:1002EC001B681946104600F009FE7A4B04221A705E
:1002FC00002000F0D1FF0346002B1AD0794B1B686D
:10030C001946002000F07CFF4FF47A71022000F0B7
:10031C0077FF754B1B68724A1360704B1B681A464B
:10032C006F4B1B681946104600F0E8FD694B032221
:10033C001A706E48FFF774FF0346002B00F04281E1
:10034C006A48FFF780FF6321632000F0D7FD684BFC
:10035C0005221A705F4B05221A7033E101F0B8F8D0
:10036C00022000F099FF0346002B1AD04FF47A714B
:10037C00022000F045FF594B1B68013B574A1360A4
:10038C00574B1B68013B564A1360544B1B681A466B
:10039C00534B1B681946104600F0B0FD4D4B032221
:1003AC001A70002000F078FF0346002B1ED04A4B39
:1003BC001B681946002000F023FF4FF47A710220CD
:1003CC0000F01EFF4B4B1B68444A13604A4B1B68E2
:1003DC00434A1360414B1B681A46414B1B68194634
:1003EC00104600F08BFD3B4B02221A703F48FFF782
:1003FC0017FF0346002B00F0E7803C48FFF723FF74
:10040C00384B1B681946002000F0FAFE632163206C
:10041C0000F074FD2F4B05221A70354B04221A7014
:10042C00D2E001F005F8022000F036FF0346002B65
:10043C001AD04FF47A71022000F0E2FE274B1B68B1
:10044C00013B264A1360264B1B68013B244A136070
:10045C00224B1B681A46224B1B681946104600F0AB
:10046C004DFD1C4B02221A70002000F015FF0346B4
:10047C00002B1AD01B4B1B681946002000F0C0FE45
:10048C004FF47A71022000F0BBFE174B1B68134A25
:10049C001360124B1B681A46114B1B681946104609
:1004AC0000F02CFD0B4B01221A701048FFF7B8FE20
:1004BC000346002B00F08A800C48FFF7C4FE632132
:1004CC00632000F01BFD0A4B03221A70014B05221E
:1004DC001A707BE0A800002040000020540000208F
:1004EC005800002044000020500000200000002094
:1004FC00B80000204C0000204800002000F0C0FF95
:10050C00022000F0C9FE0346002B1AD04FF47A717A
:10051C00022000F075FE304B1B68013B2E4A136025
:10052C002E4B1B68013B2D4A13602B4B1B681A4644
:10053C002A4B1B681946104600F0E0FC284B0122A0
:10054C001A70002000F0A8FE0346002B1ED0254B8D
:10055C001B681946002000F053FE4FF47A710220FC
:10056C0000F04EFE204B1B681B4A13601F4B1B6890
:10057C001A4A1360184B1B681A46184B1B6819460D
:10058C00104600F0BBFC164B04221A701848FFF7FB
:10059C0047FE0346002B1BD01548FFF754FE154BA6
:1005AC001B681946002000F02BFE6321632000F02D
:1005BC00A5FC0B4B05221A700F4B02221A7007E098
:1005CC0000BF06E000BF04E000BF02E000BF00E097
:1005DC0000BF00BF80BD00BF5400002058000020A9
:1005EC00A800002040000020480000204C00002003
:1005FC000000002044000020B800002080B500AFAF
:10060C00AE4B1B78082B00F2F78101A252F823F0B5
:10061C00050A0008410600084B080008F10800080C
:10062C005D070008D90700086F060008EB060008F4
:10063C004B090008A24B1B68A24A1360A24B1B6813
:10064C00A24A1360A24B1B68A24A13604FF4FA71C2
:10065C00032000F0D5FD01F045F8984B06221A70E6
:10066C00D7E1984B1B681A46964B1B6819461046E7
:10067C0000F044FC032000F00FFE0346002B06D0D4
:10068C0000F0BEFF4FF4FA71032000F0B9FD924860
:10069C00FFF7AAFD0346002B0ED08F48FFF7B4FDE1
:1006AC00884B1B680133874A1360864B1B68632B8E
:1006BC0002D9844B00221A608848FFF795FD034647
:1006CC00002B00F09B818548FFF79EFD8448FFF7C7
:1006DC009BFD00F025FF794B07221A708EE100F08C
:1006EC009FFF784B1B681A46764B1B6819461046C1
:1006FC0000F004FC7A48FFF777FD0346002B0FD07F
:10070C007748FFF781FD7448FFF77EFD4FF4FA71CF
:10071C00032000F075FD01F00DF8684B04221A70EF
:10072C006E48FFF761FD0346002B00F069816B48B2
:10073C00FFF76AFD6848FFF767FD4FF4FA71032075
:10074C0000F05EFD00F0CEFF5C4B06221A7057E104
:10075C005E4B1B681A465D4B1B681946104600F031
:10076C00CDFB032000F098FD0346002B06D000F0D3
:10077C0037FF4FF4FA71032000F042FD5648FFF7A3
:10078C0033FD0346002B0ED05348FFF73DFD4F4B76
:10079C001B6801334D4A13604C4B1B68632B02D909
:1007AC004A4B00221A604D48FFF71EFD0346002BF2
:1007BC0000F028814948FFF727FD4948FFF724FD41
:1007CC0000F0AEFE3D4B05221A701BE100F062FFFB
:1007DC003E4B1B681A463D4B1B681946104600F0F1
:1007EC008DFB3F48FFF700FD0346002B0FD03C4824
:1007FC00FFF70AFD3848FFF707FD4FF4FA710320A5
:10080C0000F0FEFC00F0BEFF2C4B02221A703348A5
:10081C00FFF7EAFC0346002B00F0F6802F48FFF7A9
:10082C00F3FC2D48FFF7F0FC4FF4FA71032000F0B5
:10083C00E7FC00F07FFF214B04221A70E4E0254B0B
:10084C001B681A46234B1B681946104600F056FBD2
:10085C00032000F021FD0346002B06D000F0B0FE73
:10086C004FF4FA71032000F0CBFC1B48FFF7BCFCE3
:10087C000346002B0ED01848FFF7C6FC154B1B681F
:10088C000133144A1360134B1B68632B02D9114BB1
:10089C0000221A601148FFF7A7FC0346002B00F05A
:1008AC00B5800E48FFF7B0FC0D48FFF7ADFC00F02B
:1008BC0037FE024B03221A70A8E000BFA9000020EB
:1008CC0048000020AC0000204C000020B0000020AC
:1008DC0050000020B400002014000020280000204C
:1008EC000000002000F0AEFE4B4B1B681A464A4B32
:1008FC001B681946104600F001FB4848FFF774FCD2
:10090C000346002B05D04548FFF77EFC444B0822DC
:10091C001A704448FFF768FC0346002B0FD041487F
:10092C00FFF772FC4048FFF76FFC4FF4FA7103209D
:10093C0000F066FC00F026FF394B02221A7000F022
:10094C0017FE3A4B1A683A4B1B689A422DD9374B13
:10095C001A68374B1B68D21A2F4B1B689A4224D14A
:10096C00324B1B68334A1360324B1B684FF47A725C
:10097C0002FB03F3304A13602D4B1B682F4A1360A4
:10098C002E4B1B684FF47A7202FB03F32C4A136054
:10099C00214B1B682B4A13602A4B1B684FF47A724D
:1009AC0002FB03F3284A136008E0264B1B681A4627
:1009BC00244B1B681946104600F0A0FA1A48FFF7A2
:1009CC002FFC0346002B23D01748FFF73CFC16489E
:1009DC00FFF71AFC1C4B1B681946002000F010FC9A
:1009EC006321632000F08AFA184B1A78184B1A709E
:1009FC000B4B00221A700BE000BF0AE000BF08E0AE
:100A0C0000BF06E000BF04E000BF02E000BF00E052
:100A1C0000BF00BF80BD00BFB4000020000000205C
:100A2C00A90000202800002014000020AC000020A9
:100A3C00B0000020480000203C0000204C000020AA
:100A4C00400000205000002044000020B90000208D
:100A5C00B800002080B500AF6F4B1B78052B00F25F
:100A6C00CF8001A252F823F00D0C00080D0C0008E9
:100A7C00F50B00084D0B0008350B00088D0A00081B
:100A8C0000F0AEFC6548FFF7AFFB0346002B0BD024
:100A9C006248FFF7B9FB624B1B681946002000F057
:100AAC00AFFB5D4B04221A705E48FFF7B9FB03469F
:100ABC00002B24D05B48FFF7C6FB5B4B1B68194629
:100ACC00002000F09DFB4FF47A71022000F098FB9F
:100ADC00564B1B68564A1360564B1B68564A13609C
:100AEC00534B1B681A46544B1B681946104600F0B2
:100AFC0005FA524B04221A70474B00221A705048C8
:100B0C00FFF78EFB0346002B7CD04D48FFF79BFB79
:100B1C0000F006FD4B4B02221A703F4B00221A705C
:100B2C00494B01221A706DE000F0D2FC002000F05D
:100B3C00B3FB0346002B67D0374B03221A7063E0DC
:100B4C0000F076FC3548FFF74FFB0346002B0BD02B
:100B5C003248FFF759FB324B1B681946002000F056
:100B6C004FFB2D4B02221A702E48FFF759FB034600
:100B7C00002B24D02B48FFF766FB2B4B1B68194628
:100B8C00002000F03DFB4FF47A71022000F038FB9E
:100B9C00284B1B68264A1360244B1B68264A13609B
:100BAC00234B1B681A46244B1B681946104600F051
:100BBC00A5F9224B02221A70174B00221A702048FA
:100BCC00FFF72EFB0346002B20D01D48FFF73BFB05
:100BDC0000F0A6FC1B4B03221A700F4B00221A705C
:100BEC00194B01221A7011E000F04AFC002000F0B1
:100BFC0053FB0346002B0BD0074B05221A7007E062
:100C0C0000BF06E000BF04E000BF02E000BF00E050
:100C1C0000BF00BF80BD00BFB80000201400002042
:100C2C004400002028000020400000204800002044
:100C3C00540000204C00002058000020A800002088
:100C4C0000000020B9000020A900002080B500AFF2
:100C5C003C4B1B68002B32D13B4B1B683B4A118829
:100C6C000122184601F0DDF8394B1B68394A11880E
:100C7C000122184601F0D5F8324B1B68364A52F85F
:100C8C002320304B1B680233334951F8233019466B
:100C9C00104600F06BF8314B1B68314A118800226A
:100CAC00184601F0BEF82F4B1B682F4A1188002202
:100CBC00184601F0B6F8234B01221A6040E0274B8E
:100CCC001B68274A11880122184601F0AAF8254B07
:100CDC001B68254A11880122184601F0A2F8194B0D
:100CEC001B681D4A52F82320164B1B6802331A4905
:100CFC0051F823301946104600F038F8114B1B6898
:100D0C00154A52F82330002B07D00F4B1B680F4AA3
:100D1C0011880022184601F084F80A4B1B68023334
:100D2C000D4A52F82330002B07D0094B1B68094A97
:100D3C0011880022184601F074F8024B00221A6048
:100D4C0000BF80BDBC000020600000206E000020B1
:100D5C006800002072000020C00000205C00002011
:100D6C006C000020640000207000002080B584B06E
:100D7C0000AF786039607B68002B07DB7B68092B40
:100D8C0004DC5B4A7B6813441B7800E07923FB731B
:100D9C003B68002B07DB3B68092B04DC544A3B689F
:100DAC0013441B7800E07923BB73FB7B03F0010336
:100DBC00DBB21A4608214F4801F033F8FB7B5B107D
:100DCC00DBB203F00103DBB21A461021494801F0F3
:100DDC0028F8FB7B9B10DBB203F00103DBB21A4655
:100DEC002021444801F01DF8FB7BDB10DBB203F043
:100DFC000103DBB21A464FF480513E4801F011F862
:100E0C00FB7B1B11DBB203F00103DBB21A464FF480
:100E1C000051384801F005F8FB7B5B11DBB203F0A5
:100E2C000103DBB21A464FF48041324800F0F9FF5F
:100E3C00FB7B9B11DBB203F00103DBB21A464FF4D0
:100E4C0000412C4800F0EDFFBB7B03F00103DBB24B
:100E5C001A464FF40061284800F0E3FFBB7B5B109F
:100E6C00DBB203F00103DBB21A464FF48051224887
:100E7C0000F0D7FFBB7B9B10DBB203F00103DBB2AE
:100E8C001A464FF400511C4800F0CBFFBB7BDB1023
:100E9C00DBB203F00103DBB21A464FF48041164873
:100EAC0000F0BFFFBB7B1B11DBB203F00103DBB215
:100EBC001A464FF40041104800F0B3FFBB7B5B11A6
:100ECC00DBB203F00103DBB21A464021094800F003
:100EDC00A8FFBB7B9B11DBB203F00103DBB21A460C
:100EEC008021044800F09DFF00BF1037BD4680BD37
:100EFC0074000020000C01400008014080B483B055
:100F0C0000AF786039607968184B83FB01239A1025
:100F1C00CB17D21A13469B0013445B00CA1A144B0E
:100F2C001A607B68114A82FB03129210DB17D31AEA
:100F3C000F4A536039680D4B83FB01239A10CB1772
:100F4C00D21A13469B0013445B00CA1A084B9A60D2
:100F5C003B68064A82FB03129210DB17D31A044A31
:100F6C00D36000BF0C37BD4680BC704767666666B1
:100F7C00C000002080B500AF00F052FC00F019F862
:100F8C0000F052F800F09CF800F0FCF8FFF768F95C
:100F9C00FFF760FDFFF732FB012000F07DF90346FF
:100FAC00002BF3D0FFF752FEFA21012000F028F9B4
:100FBC00ECE780B590B000AF07F1180328220021B0
:100FCC00184601F03BFF3B1D00221A605A609A60E4
:100FDC00DA601A610223BB610123BB621023FB623E
:100FEC0000237B6307F11803184600F04BFF034600
:100FFC00002B01D000F0FEF80F237B600023BB60B8
:10100C000023FB6000233B6100237B613B1D00211F
:10101C00184601F0B7F90346002B01D000F0EAF8AE
:10102C0000BF4037BD4680BD80B586B000AF07F12C
:10103C00080300221A605A609A60DA603B4600226C
:10104C001A605A601D4B4FF080421A601B4B41F6E0
:10105C003F725A60194B00229A60184B0922DA60D1
:10106C00164B00221A61154B00229A61134801F0AD
:10107C00E5FA0346002B01D000F0BCF84FF4805386
:10108C00BB6007F1080319460C4801F063FC0346EA
:10109C00002B01D000F0AEF800233B6000237B60F6
:1010AC003B461946054801F03BFE0346002B01D098
:1010BC0000F0A0F800BF1837BD4680BD000100202D
:1010CC0080B586B000AF07F1080300221A605A60A1
:1010DC009A60DA60284B9B69274A43F004039361BA
:1010EC00254B9B6903F004037B607B68224B9B6957
:1010FC00214A43F0080393611F4B9B6903F00803DB
:10110C003B603B6800224FF63D711C4800F089FEA5
:10111C0000224FF6F8711A4800F083FE4FF63D732B
:10112C00BB600123FB6000233B6102237B6107F161
:10113C0008031946114800F0E3FC0723BB600023A9
:10114C00FB6001233B6107F1080319460C4800F0D2
:10115C00D7FC4FF6F873BB600123FB6000233B61A7
:10116C0002237B6107F108031946054800F0C8FC0F
:10117C0000BF1837BD4680BD00100240000801407A
:10118C00000C014080B500AFFA21012000F038F8C6
:10119C00064B1B681A46064B1B6819461046FFF790
:1011AC00ADFE044801F09AFA00BF80BD4800002053
:1011BC004C0000200001002080B582B000AF7860A8
:1011CC007B681B68B3F1804F0AD10748FEF7B8FF64
:1011DC000648FEF7B5FF0648FEF7B2FF00F02EF802
:1011EC0000BF0837BD4680BD000000201400002061
:1011FC002800002080B400AF72B600BFFEE70000EC
:10120C0080B483B000AF03463960FB71FB79094AA7
:10121C00DB00134400221A71FB793A680649A1FBE2
:10122C000212D208034941F8332000BF0C37BD46E7
:10123C0080BC7047D0000020CDCCCCCC80B483B027
:10124C0000AF0023FB711CE0FB79124A52F83330DB
:10125C00002B13D0FB790F4A52F83320013A0D4979
:10126C0041F83320FB790B4A52F83330002B05D16F
:10127C00FB79084ADB00134401221A71FB79013314
:10128C00FB71FB79052BDFD900BF00BF0C37BD46C6
:10129C0080BC7047D000002080B483B000AF034600
:1012AC00FB71FB79064ADB0013441B79012B01D13E
:1012BC00012300E0002318460C37BD4680BC704764
:1012CC00D000002080B485B000AF154B9B69144A48
:1012DC0043F001039361124B9B6903F00103BB6064
:1012EC00BB680F4BDB690E4A43F08053D3610C4B48
:1012FC00DB6903F080537B607B680A4B5B68FB60A7
:10130C00FB6823F0E063FB60FB6843F08063FB60E9
:10131C00044AFB68536000BF1437BD4680BC70475D
:10132C00001002400000014080B584B000AF78602E
:10133C007B681B68B3F1804F13D10C4BDB690B4AF4
:10134C0043F00103D361094BDB6903F00103FB603C
:10135C00FB68002200211C2000F09BFB1C2000F0ED
:10136C00B4FB00BF1037BD4680BD00BF001002406B
:10137C0080B400AFFEE780B400AFFEE780B400AFEE
:10138C00FEE780B400AFFEE780B400AFFEE780B4A8
:10139C0000AF00BFBD4680BC704780B400AF00BF3B
:1013AC00BD4680BC704780B400AF00BFBD4680BC5A
:1013BC00704780B500AF00F079FA00BF80BD000027
:1013CC0080B500AF024801F0D5F900BF80BD00BF69
:1013DC000001002080B400AF00BFBD4680BC704748
:1013EC0080B500AF00220421104800F01AFD012244
:1013FC0008210E4800F015FD012210210B4800F0C9
:10140C0010FD01224FF48071084800F00AFD002203
:10141C004FF40071054800F004FD01224FF4806187
:10142C00024800F0FEFC00BF80BD00BF0008014078
:10143C0080B500AF01220421104800F0F2FC00221C
:10144C0008210E4800F0EDFC012210210B4800F0A1
:10145C00E8FC00224FF48071084800F0E2FC012205
:10146C004FF40071054800F0DCFC01224FF4806160
:10147C00024800F0D6FC00BF80BD00BF0008014050
:10148C0080B500AF01220421104800F0CAFC0122F3
:10149C0008210E4800F0C5FC002210210B4800F07A
:1014AC00C0FC00224FF48071084800F0BAFC012205
:1014BC004FF40071054800F0B4FC01224FF4806138
:1014CC00024800F0AEFC00BF80BD00BF0008014028
:1014DC0080B500AF00220421104800F0A2FC0122CC
:1014EC0008210E4800F09DFC012210210B4800F051
:1014FC0098FC01224FF48071084800F092FC012204
:10150C004FF40071054800F08CFC00224FF4806110
:10151C00024800F086FC00BF80BD00BF00080140FF
:10152C0080B500AF01220421104800F07AFC0122A2
:10153C0008210E4800F075FC012210210B4800F028
:10154C0070FC01224FF48071084800F06AFC012203
:10155C004FF40071054800F064FC01224FF48061E7
:10156C00024800F05EFC00BF80BD00BF00080140D7
:10157C0080B500AF00220421104800F052FC00227C
:10158C0008210E4800F04DFC002210210B4800F001
:10159C0048FC00224FF48071084800F042FC002205
:1015AC004FF40071054800F03CFC00224FF48061C0
:1015BC00024800F036FC00BF80BD00BF00080140AF
:1015CC0080B500AF1021054800F043FC4FF480615A
:1015DC00024800F03EFC00BF80BD00BF0008014087
:1015EC0080B500AF0821054800F033FC4FF40071C2
:1015FC00024800F02EFC00BF80BD00BF0008014077
:10160C0080B500AF0421054800F023FC4FF4807135
:10161C00024800F01EFC00BF80BD00BF0008014066
:10162C0080B500AF00220421054800F0FAFB00222F
:10163C004FF48071024800F0F4FB00BF80BD00BF86
:10164C000008014080B500AF01220421104800F0D1
:10165C00E8FB012208210E4800F0E3FB00221021D8
:10166C000B4800F0DEFB01224FF48071084800F0BB
:10167C00D8FB01224FF40071054800F0D2FB002288
:10168C004FF48061024800F0CCFB00BF80BD00BF6E
:10169C000008014080B500AF01220421104800F081
:1016AC00C0FB002208210E4800F0BBFB01221021D8
:1016BC000B4800F0B6FB01224FF48071084800F093
:1016CC00B0FB00224FF40071054800F0AAFB012288
:1016DC004FF48061024800F0A4FB00BF80BD00BF46
:1016EC000008014080B500AF00220421104800F032
:1016FC0098FB012208210E4800F093FB01221021D7
:10170C000B4800F08EFB01224FF48071084800F06A
:10171C0088FB01224FF40071054800F082FB012286
:10172C004FF48061024800F07CFB00BF80BD00BF1D
:10173C000008014080B500AF01220421104800F0E0
:10174C0070FB002208210E4800F06BFB01221021D7
:10175C000B4800F066FB01224FF48071084800F042
:10176C0060FB01224FF40071054800F05AFB012286
:10177C004FF48061024800F054FB00BF80BD00BFF5
:10178C000008014080B500AF01220421104800F090
:10179C0048FB012208210E4800F043FB00221021D7
:1017AC000B4800F03EFB01224FF48071084800F01A
:1017BC0038FB01224FF40071054800F032FB012286
:1017CC004FF48061024800F02CFB00BF80BD00BFCD
:1017DC0000080140FFF7FEFD0B480C490C4A0023A2
:1017EC0002E0D458C4500433C4188C42F9D3094ACB
:1017FC00094C002301E013600432A242FBD301F038
:10180C00F9FAFFF7B7FB7047000000208C000020AE
:10181C009C2E00088C0000204C010020FEE70000EC
:10182C0080B500AF084B1B68074A43F010031360E8
:10183C00032000F023F90F2000F008F8FFF742FD19
:10184C000023184680BD00BF0020024080B582B046
:10185C0000AF7860124B1A68124B1B7819464FF484
:10186C007A73B3FBF1F3B2FBF3F3184600F03BF9D8
:10187C000346002B01D001230EE07B680F2B0AD806
:10188C00002279684FF0FF3000F003F9064A7B68BC
:10189C001360002300E0012318460837BD4680BDC5
:1018AC0080000020880000208400002080B400AF5D
:1018BC00054B1B781A46054B1B681344034A1360EF
:1018CC0000BFBD4680BC7047880000204801002046
:1018DC0080B400AF024B1B681846BD4680BC7047F5
:1018EC004801002080B485B000AF78607B6803F0BD
:1018FC000703FB600C4BDB68BB60BA684FF6FF0359
:10190C001340BB60FB681A02BB68134343F0BF6310
:10191C0043F40033BB60044ABB68D36000BF143788
:10192C00BD4680BC704700BF00ED00E080B400AF46
:10193C00044BDB681B0A03F007031846BD4680BC4A
:10194C00704700BF00ED00E080B483B000AF0346E9
:10195C00FB7197F90730002B0BDBFB7903F01F02AF
:10196C00064997F907305B09012000FA02F241F8A9
:10197C00232000BF0C37BD4680BC704700E100E05F
:10198C0080B483B000AF03463960FB7197F9073020
:10199C00002B0ADB3B68DAB20C4997F907301201CD
:1019AC00D2B20B4483F800230AE03B68DAB2084950
:1019BC00FB7903F00F03043B1201D2B20B441A76ED
:1019CC0000BF0C37BD4680BC704700BF00E100E093
:1019DC0000ED00E080B489B000AFF860B9607A60C7
:1019EC00FB6803F00703FB61FB69C3F10703042BDE
:1019FC0028BF0423BB61FB690433062B02D9FB69A6
:101A0C00033B00E000237B614FF0FF32BB6902FA1D
:101A1C0003F3DA43BB681A407B699A404FF0FF31FD
:101A2C007B6901FA03F3D9437B680B4013431846D7
:101A3C002437BD4680BC704780B582B000AF78605B
:101A4C007B68013BB3F1807F01D301230FE00A4A8D
:101A5C007B68013B53600F214FF0FF30FFF790FF85
:101A6C00054B00229A60044B07221A60002318468B
:101A7C000837BD4680BD00BF10E000E080B582B0E5
:101A8C0000AF78607868FFF72DFF00BF0837BD46C0
:101A9C0080BD80B586B000AF0346B9607A60FB7339
:101AAC0000237B61FFF742FF78617A68B968786937
:101ABC00FFF790FF024697F90F3011461846FFF7D3
:101ACC005FFF00BF1837BD4680BD80B582B000AF48
:101ADC000346FB7197F907301846FFF735FF00BF37
:101AEC000837BD4680BD80B582B000AF786078689D
:101AFC00FFF7A2FF034618460837BD4680BD00001D
:101B0C0080B48BB000AF7860396000237B62002317
:101B1C003B6248E101227B6A02FA03F3FB613B68FA
:101B2C001B68FA691340BB61BA69FB699A4240F0C1
:101B3C0037813B685B68A34A93425ED0A14A9342CB
:101B4C0075D8A14A934258D09F4A93426FD89F4A66
:101B5C00934252D09D4A934269D89D4A93424CD0AD
:101B6C009B4A934263D89B4A934246D0994A9342EC
:101B7C005DD8122B2AD8122B59D801A252F823F077
:101B8C00071C0008E11B0008F31B0008351C0008AB
:101B9C003B1C00083B1C00083B1C00083B1C0008BD
:101BAC003B1C00083B1C00083B1C00083B1C0008AD
:101BBC003B1C00083B1C00083B1C00083B1C00089D
:101BCC003B1C0008E91B0008FD1B0008824A9342DD
:101BDC0013D02CE03B68DB683B6229E03B68DB6898
:101BEC0004333B6224E03B68DB6808333B621FE054
:101BFC003B68DB680C333B621AE03B689B68002B4C
:101C0C0002D104233B6213E03B689B68012B05D196
:101C1C0008233B627B68FA691A6109E008233B627E
:101C2C007B68FA695A6103E000233B6200E000BF65
:101C3C00BB69FF2B01D87B6801E07B6804337B61B7
:101C4C00BB69FF2B02D87B6A9B0002E07B6A083BD6
:101C5C009B003B617B691A680F213B6901FA03F316
:101C6C00DB431A40396A3B6901FA03F31A437B6977
:101C7C001A603B685B6803F08053002B00F0908087
:101C8C00564B9B69554A43F001039361534B9B6937
:101C9C0003F00103BB60BB68514A7B6A9B080233AB
:101CAC0052F82330FB607B6A03F003039B000F2286
:101CBC0002FA03F3DB43FA681340FB607B68494A82
:101CCC0093420DD07B68484A934207D07B68474AC1
:101CDC00934201D1022304E0032302E0012300E03C
:101CEC0000237A6A02F0030292009340FA681343CD
:101CFC00FB603B497B6A9B080233FA6841F823205E
:101D0C003B685B6803F48013002B06D0384B9A6851
:101D1C003749BB6913438B6006E0354B9A68BB6946
:101D2C00DB43334913408B603B685B6803F400135F
:101D3C00002B06D02E4BDA682D49BB691343CB60C0
:101D4C0006E02B4BDA68BB69DB4329491340CB60B7
:101D5C003B685B6803F40033002B06D0244B5A68B5
:101D6C002349BB6913434B6006E0214B5A68BB699E
:101D7C00DB431F4913404B603B685B6803F48033C3
:101D8C00002B06D01A4B1A681949BB6913430B6018
:101D9C0006E0174B1A68BB69DB43154913400B600F
:101DAC007B6A01337B623B681A687B6A22FA03F315
:101DBC00002B7FF4AFAE00BF00BF2C37BD4680BCFC
:101DCC00704700BF000032100000311000002210DC
:101DDC000000211000001210000011100010024031
:101DEC000000014000080140000C014000100140BF
:101DFC000004014080B485B000AF78600B467B8056
:101E0C007B689A687B881340002B02D00123FB73FC
:101E1C0001E00023FB73FB7B18461437BD4680BCE6
:101E2C00704780B483B000AF78600B467B8013465C
:101E3C007B707B78002B03D07A887B681A6103E077
:101E4C007B881A047B681A6100BF0C37BD4680BCC6
:101E5C00704780B485B000AF78600B467B807B68A0
:101E6C00DB68FB607A88FB6813401A04FB68D94373
:101E7C007B880B401A437B681A6100BF1437BD4640
:101E8C0080BC704780B586B000AF78607B68002B53
:101E9C0001D101236CE27B681B6803F00103002B6A
:101EAC0000F08780924B5B6803F00C03042B0CD082
:101EBC008F4B5B6803F00C03082B12D18C4B5B68C7
:101ECC0003F48033B3F5803F0BD1894B1B6803F4CB
:101EDC000033002B6CD07B685B68002B68D101232E
:101EEC0046E27B685B68B3F5803F06D1804B1B688C
:101EFC007F4A43F4803313602EE07B685B68002BD1
:101F0C000CD17B4B1B687A4A23F480331360784BDB
:101F1C001B68774A23F4802313601DE07B685B68A1
:101F2C00B3F5A02F0CD1724B1B68714A43F480237C
:101F3C0013606F4B1B686E4A43F4803313600BE0E5
:101F4C006B4B1B686A4A23F480331360684B1B6825
:101F5C00674A23F4802313607B685B68002B13D0E3
:101F6C00FFF7B6FC386108E0FFF7B2FC02463B69AC
:101F7C00D31A642B01D90323FAE15D4B1B6803F4DC
:101F8C000033002BF0D014E0FFF7A2FC386108E01E
:101F9C00FFF79EFC02463B69D31A642B01D903233D
:101FAC00E6E1534B1B6803F40033002BF0D100E047
:101FBC0000BF7B681B6803F00203002B63D04C4B03
:101FCC005B6803F00C03002B0BD0494B5B6803F0F0
:101FDC000C03082B1CD1464B5B6803F48033002B9D
:101FEC0016D1434B1B6803F00203002B05D07B6812
:101FFC001B69012B01D00123BAE13D4B1B6823F077
:10200C00F8027B685B69DB00394913430B603AE0EB
:10201C007B681B69002B20D0364B01221A60FFF71E
:10202C0057FC386108E0FFF753FC02463B69D31AB2
:10203C00022B01D903239BE12D4B1B6803F00203F8
:10204C00002BF0D02A4B1B6823F0F8027B685B69ED
:10205C00DB00274913430B6015E0264B00221A6066
:10206C00FFF736FC386108E0FFF732FC02463B69AB
:10207C00D31A022B01D903237AE11D4B1B6803F001
:10208C000203002BF0D17B681B6803F00803002BC4
:10209C003AD07B689B69002B19D0174B01221A6030
:1020AC00FFF716FC386108E0FFF712FC02463B69AB
:1020BC00D31A022B01D903235AE10D4B5B6A03F0AF
:1020CC000203002BF0D0012000F09AFA1CE00A4B1E
:1020DC0000221A60FFF7FCFB38610FE0FFF7F8FBFA
:1020EC0002463B69D31A022B08D9032340E100BFF7
:1020FC000010024000004242800442429E4B5B6A48
:10210C0003F00203002BE9D17B681B6803F0040386
:10211C00002B00F0A6800023FB75974BDB6903F0C6
:10212C008053002B0DD1944BDB69934A43F08053C1
:10213C00D361914BDB6903F08053BB60BB68012317
:10214C00FB758E4B1B6803F48073002B18D18B4BE3
:10215C001B688A4A43F480731360FFF7B9FB38613C
:10216C0008E0FFF7B5FB02463B69D31A642B01D993
:10217C000323FDE0814B1B6803F48073002BF0D02C
:10218C007B68DB68012B06D17B4B1B6A7A4A43F0D8
:10219C00010313622DE07B68DB68002B0CD1764BBE
:1021AC001B6A754A23F001031362734B1B6A724A54
:1021BC0023F0040313621CE07B68DB68052B0CD155
:1021CC006D4B1B6A6C4A43F0040313626A4B1B6A27
:1021DC00694A43F0010313620BE0674B1B6A664AC2
:1021EC0023F001031362644B1B6A634A23F004035C
:1021FC0013627B68DB68002B15D0FFF769FB386135
:10220C000AE0FFF765FB02463B69D31A41F28832BC
:10221C00934201D90323ABE0574B1B6A03F0020333
:10222C00002BEED014E0FFF753FB38610AE0FFF708
:10223C004FFB02463B69D31A41F28832934201D9D3
:10224C00032395E04C4B1B6A03F00203002BEED1E9
:10225C00FB7D012B05D1484BDB69474A23F08053AA
:10226C00D3617B68DB69002B00F08180424B5B689B
:10227C0003F00C03082B61D07B68DB69022B46D181
:10228C003F4B00221A60FFF723FB386108E0FFF791
:10229C001FFB02463B69D31A022B01D9032367E0CB
:1022AC00354B1B6803F00073002BF0D17B681B6A65
:1022BC00B3F5803F08D1304B5B6823F400327B6868
:1022CC009B682D4913434B602B4B5B6823F47412B2
:1022DC007B68196A7B685B6A0B43274913434B6025
:1022EC00274B01221A60FFF7F3FA386108E0FFF779
:1022FC00EFFA02463B69D31A022B01D9032337E0CC
:10230C001D4B1B6803F00073002BF0D02FE01C4B0F
:10231C0000221A60FFF7DCFA386108E0FFF7D8FA00
:10232C0002463B69D31A022B01D9032320E0124B3E
:10233C001B6803F00073002BF0D118E07B68DB699D
:10234C00012B01D1012313E00B4B5B68FB60FB6895
:10235C0003F480327B681B6A9A4206D1FB6803F453
:10236C0070127B685B6A9A4201D0012300E0002363
:10237C0018461837BD4680BD001002400070004062
:10238C006000424280B584B000AF786039607B68F1
:10239C00002B01D10123D0E06A4B1B6803F007032B
:1023AC003A689A4210D9674B1B6823F007026549BB
:1023BC003B6813430B60634B1B6803F007033A68DD
:1023CC009A4201D00123B8E07B681B6803F002033A
:1023DC00002B20D07B681B6803F00403002B05D076
:1023EC00594B5B68584A43F4E06353607B681B6845
:1023FC0003F00803002B05D0534B5B68524A43F49F
:10240C0060535360504B5B6823F0F0027B689B6811
:10241C004D4913434B607B681B6803F00103002B91
:10242C0040D07B685B68012B07D1474B1B6803F4DA
:10243C000033002B15D101237FE07B685B68022BF6
:10244C0007D1414B1B6803F00073002B09D101230A
:10245C0073E03D4B1B6803F00203002B01D10123F9
:10246C006BE0394B5B6823F003027B685B68364991
:10247C0013434B60FFF72CFAF8600AE0FFF728FAD9
:10248C000246FB68D31A41F28832934201D90323E6
:10249C0053E02D4B5B6803F00C027B685B689B0080
:1024AC009A42EBD1274B1B6803F007033A689A4218
:1024BC0010D2244B1B6823F0070222493B681343BC
:1024CC000B60204B1B6803F007033A689A4201D05B
:1024DC00012332E07B681B6803F00403002B08D057
:1024EC00194B5B6823F4E0627B68DB681649134385
:1024FC004B607B681B6803F00803002B09D0124B60
:10250C005B6823F460527B681B69DB000E49134344
:10251C004B6000F021F802460B4B5B681B0903F083
:10252C000F030A49CB5C22FA03F3094A1360094BE7
:10253C001B681846FFF78AF9002318461037BD466A
:10254C0080BD00BF0020024000100240702E000829
:10255C00800000208400002080B487B000AF0023EE
:10256C00FB600023BB6000237B6100237B600023A6
:10257C003B611E4B5B68FB60FB6803F00C03042B98
:10258C0002D0082B03D027E0194B3B6127E0FB68F6
:10259C009B0C03F00F03174AD35C7B60FB6803F4BE
:1025AC008033002B10D0114B5B685B0C03F00103E4
:1025BC00114AD35CBB607B680D4A02FB03F2BB681B
:1025CC00B2FBF3F37B6104E07B680C4A02FB03F380
:1025DC007B617B693B6102E0054B3B6100BF3B6962
:1025EC0018461C37BD4680BC704700BF0010024027
:1025FC0000127A00802E0008902E000800093D0081
:10260C0080B485B000AF78600A4B1B680A4AA2FB05
:10261C0003235B0A7A6802FB03F3FB6000BFFB68D1
:10262C005A1EFA60002BF9D100BF00BF1437BD460B
:10263C0080BC704780000020D34D621080B582B002
:10264C0000AF78607B68002B01D1012341E07B68EF
:10265C0093F83D30DBB2002B06D17B68002283F867
:10266C003C207868FEF760FE7B68022283F83D20F0
:10267C007B681A687B6804331946104600F056FADA
:10268C007B68012283F846207B68012283F83E2078
:10269C007B68012283F83F207B68012283F840206D
:1026AC007B68012283F841207B68012283F8422059
:1026BC007B68012283F843207B68012283F8442045
:1026CC007B68012283F845207B68012283F83D203A
:1026DC00002318460837BD4680BD000080B485B085
:1026EC0000AF78607B6893F83D30DBB2012B01D0F2
:1026FC00012335E07B68022283F83D207B681B6850
:10270C00DA687B681B6842F00102DA607B681B6840
:10271C00164A934209D07B681B68B3F1804F04D0F2
:10272C007B681B68124A934211D17B681B689B68BB
:10273C0003F00703FB60FB68062B10D07B681B685B
:10274C001A687B681B6842F001021A6007E07B681C
:10275C001B681A687B681B6842F001021A60002330
:10276C0018461437BD4680BC704700BF002C014092
:10277C000004004080B584B000AF78607B681B68B3
:10278C00DB68FB607B681B681B69BB60BB6803F084
:10279C000203002B20D0FB6803F00203002B1BD09C
:1027AC007B681B686FF002021A617B6801221A7742
:1027BC007B681B689B6903F00303002B03D07868CC
:1027CC0000F098F905E0786800F08BF9786800F073
:1027DC009AF97B6800221A77BB6803F00403002B7C
:1027EC0020D0FB6803F00403002B1BD07B681B6814
:1027FC006FF004021A617B6802221A777B681B68EF
:10280C009B6903F44073002B03D0786800F072F9D5
:10281C0005E0786800F065F9786800F074F97B6879
:10282C0000221A77BB6803F00803002B20D0FB684A
:10283C0003F00803002B1BD07B681B686FF00802A9
:10284C001A617B6804221A777B681B68DB6903F0CA
:10285C000303002B03D0786800F04CF905E078688E
:10286C0000F03FF9786800F04EF97B6800221A7787
:10287C00BB6803F01003002B20D0FB6803F010039F
:10288C00002B1BD07B681B686FF010021A617B68F1
:10289C0008221A777B681B68DB6903F44073002BF2
:1028AC0003D0786800F026F905E0786800F019F993
:1028BC00786800F028F97B6800221A77BB6803F06F
:1028CC000103002B0CD0FB6803F00103002B07D095
:1028DC007B681B686FF001021A617868FEF76CFC6C
:1028EC00BB6803F08003002B0CD0FB6803F0800363
:1028FC00002B07D07B681B686FF080021A61786828
:10290C0000F06FFABB6803F04003002B0CD0FB689F
:10291C0003F04003002B07D07B681B686FF040026C
:10292C001A61786800F0F8F8BB6803F02003002BFC
:10293C000CD0FB6803F02003002B07D07B681B68CE
:10294C006FF020021A61786800F042FA00BF10376D
:10295C00BD4680BD80B584B000AF7860396000237F
:10296C00FB737B6893F83C30012B01D10223B4E05C
:10297C007B68012283F83C207B68022283F83D208F
:10298C007B681B689B68BB60BB6823F07703BB60EC
:10299C00BB6823F47F43BB607B681B68BA689A6092
:1029AC003B681B68B3F5005F3ED0B3F5005F00F2E7
:1029BC008780B3F5805F00F08680B3F5805F7FD8A9
:1029CC00702B1AD0702B7BD8602B50D0602B77D803
:1029DC00502B3CD0502B73D8402B58D0402B6FD859
:1029EC00302B64D0302B6BD8202B60D0202B67D8A9
:1029FC00002B5CD0102B5AD062E07B6818683B68C7
:102A0C0099683B685A683B68DB6800F06AF97B6838
:102A1C001B689B68BB60BB6843F07703BB607B683B
:102A2C001B68BA689A604FE07B6818683B689968C5
:102A3C003B685A683B68DB6800F053F97B681B689D
:102A4C009A687B681B6842F480429A603CE07B6821
:102A5C0018683B6859683B68DB681A4600F0CAF88E
:102A6C007B681B685021184600F021F92CE07B682C
:102A7C0018683B6859683B68DB681A4600F0E8F850
:102A8C007B681B686021184600F011F91CE07B681C
:102A9C0018683B6859683B68DB681A4600F0AAF86E
:102AAC007B681B684021184600F001F90CE07B683C
:102ABC001A683B681B681946104600F0F8F803E0EA
:102ACC000123FB7300E000BF7B68012283F83D20EB
:102ADC007B68002283F83C20FB7B18461037BD46F0
:102AEC0080BD80B483B000AF786000BF0C37BD46AA
:102AFC0080BC704780B483B000AF786000BF0C37E7
:102B0C00BD4680BC704780B483B000AF786000BF16
:102B1C000C37BD4680BC704780B483B000AF786082
:102B2C0000BF0C37BD4680BC7047000080B485B038
:102B3C0000AF786039607B681B68FB607B682B4A50
:102B4C00934207D07B68B3F1804F03D07B68284A4F
:102B5C00934208D1FB6823F07003FB603B685B6811
:102B6C00FA681343FB607B68204A934207D07B686A
:102B7C00B3F1804F03D07B681D4A934208D1FB68A8
:102B8C0023F44073FB603B68DB68FA681343FB601B
:102B9C00FB6823F080023B685B691343FB607B6836
:102BAC00FA681A603B689A687B68DA623B681A6854
:102BBC007B689A627B680D4A934203D13B681A6921
:102BCC007B681A637B6801225A617B681B6903F07E
:102BDC000103002B05D07B681B6923F001027B6885
:102BEC001A6100BF1437BD4680BC7047002C0140F1
:102BFC000004004080B487B000AFF860B9607A6020
:102C0C00FB681B6A7B61FB681B6A23F00102FB6893
:102C1C001A62FB689B693B613B6923F0F0033B61E3
:102C2C007B681B013A6913433B617B6923F00A0300
:102C3C007B617A69BB6813437B61FB683A699A6173
:102C4C00FB687A691A6200BF1C37BD4680BC7047AE
:102C5C0080B487B000AFF860B9607A60FB681B6A1B
:102C6C007B61FB681B6A23F01002FB681A62FB682D
:102C7C009B693B613B6923F470433B617B681B039D
:102C8C003A6913433B617B6923F0A0037B61BB680A
:102C9C001B017A6913437B61FB683A699A61FB6893
:102CAC007A691A6200BF1C37BD4680BC704780B47D
:102CBC0085B000AF786039607B689B68FB60FB680F
:102CCC0023F07003FB603A68FB68134343F007037F
:102CDC00FB607B68FA689A6000BF1437BD4680BC05
:102CEC00704780B487B000AFF860B9607A603B6021
:102CFC00FB689B687B617B6923F47F437B613B684A
:102D0C001A027B681A43BB6813437A6913437B61CD
:102D1C00FB687A699A6000BF1C37BD4680BC70475F
:102D2C0080B485B000AF786039607B6893F83C3034
:102D3C00012B01D1022341E07B68012283F83C2066
:102D4C007B68022283F83D207B681B685B68FB6014
:102D5C007B681B689B68BB60FB6823F07003FB609F
:102D6C003B681B68FA681343FB607B681B68FA6856
:102D7C005A607B681B68144A934209D07B681B68B5
:102D8C00B3F1804F04D07B681B68104A93420CD17E
:102D9C00BB6823F08003BB603B685B68BA68134375
:102DAC00BB607B681B68BA689A607B68012283F8F9
:102DBC003D207B68002283F83C2000231846143702
:102DCC00BD4680BC704700BF002C01400004004091
:102DDC0080B483B000AF786000BF0C37BD4680BCB8
:102DEC00704780B483B000AF786000BF0C37BD462D
:102DFC0080BC704770B500260C4D0D4C641BA410A4
:102E0C00A64209D100F022F800260A4D0A4C641B98
:102E1C00A410A64205D170BD55F8043B9847013665
:102E2C00EEE755F8043B98470136F2E7942E00087C
:102E3C00942E0008942E0008982E00080346024495
:102E4C00934200D1704703F8011BF9E7F8B500BFB6
:102E5C00F8BC08BC9E467047F8B500BFF8BC08BC6F
:042E6C009E467047C7
:102E7000000000000000000001020304060708092A
:102E800002030405060708090A0B0C0D0E0F1010AB
:042E9000010200003B
:042E94003101000800
:042E98000D01000820
:102E9C00000C0140010001010101010000000000D3
:102EAC0000000000000C01400200010101010100C2
:102EBC000000000000000000000C014004000101B3
:102ECC00010101000000000000000000581B000080
:102EDC0088130000D0070000070000000500000068
:102EEC00020000000700000005000000000C01407B
:102EFC00000C0140000C0140000C014000010002DC
:102F0C00000400083F065B4F666D7D077F6F000075
:0C2F1C0000127A0010000000010000000C
:04000005080017E1F7
:00000001FF
